:100000000C94EF000C9417010C9417010C94170139
:100010000C9417010C9417010C9417010C94170100
:100020000C9417010C9417010C9417010C941701F0
:100030000C9417010C9417010C9417010C941701E0
:100040000C943D0A0C9417010C94AD0A0C94870A89
:100050000C9417010C9417010C9417010C941701C0
:100060000C9417010C94170100407A10F35A00A069
:10007000724E18090010A5D4E80000E87648170071
:1000800000E40B54020000CA9A3B000000E1F505B1
:10009000000080969800000040420F000000A086FB
:1000A00001000000102700000000E803000000002D
:1000B0006400000000000A000000000001000000D1
:1000C00000002C76D888DC674F0823DFC1DFAE59EB
:1000D000E1B1B796E5E3E453C63AE651997696E87E
:1000E000E6C28426EB898C9B62ED407C6FFCEFBC02
:1000F0009C9F40F2BAA56FA5F490055A2AF75C932D
:100100006B6CF9676DC11BFCE0E40D47FEF520E662
:10011000B500D0ED902E0300943577050080841E45
:10012000080000204E0A000000C80C333333330FA0
:10013000986E12831141EF8D2114893BE65516CF3D
:10014000FEE6DB18D1844B381BF77C1D901DA4BB49
:10015000E424203284725E228100C9F124ECA1E5FE
:100160003D27005EBCE2613FDD83C29C7E20A3FD93
:100170001F41009D23BE46DB65F88C11AF32CA5784
:10018000E97400000000240027002A00000000009D
:10019000250028002B0000000008000201000003D9
:1001A0000407000000000000000000000000230021
:1001B00026002900040404040404040402020202C8
:1001C000020203030303030301020408102040801A
:1001D000010204081020010204081020DF0A112483
:1001E0001FBECFEFD8E0DEBFCDBF22E0A0EDB1E073
:1001F00001C01D92A23BB207E1F711E0A0E0B1E01F
:10020000E4E0FCE202C005900D92A03DB107D9F7F1
:1002100010E0CFEED0E004C02197FE010E94081448
:10022000CE3ED107C9F70E94750B0C9400160C94B2
:100230000000CF92DF92EF92FF92CF93DF93C82F0F
:1002400080917C028C3009F45EC038F48B30F1F080
:1002500060E070E080EC9FE74FC085518230C0F7CE
:10026000D09178026D2F70E0762F662766277F7712
:1002700080917902682B90E080E00E94BD112DEC06
:100280003CEC4CEC5DE30E941E1259C06091780278
:1002900070E090E080E00E94BD116B017C01D09184
:1002A0007902D7FF0AC0AC019B0160E070E080E8F2
:1002B0009FEB0E9413136B017C01DF706D2F70E0C8
:1002C00090E080E00E94BF112DEC3CEC4CEC5DE333
:1002D0000E941E12A70196010E941413CC2361F004
:1002E00026E636E646EE5FE30E941E1220E030E08E
:1002F00040E052E40E941413DF91CF91FF90EF9001
:10030000DF90CF900895D09178026D2F70E090E04B
:1003100080E00E94BD116B017C01609179026F70D9
:1003200070E090E080E00E94BF112DEC3CEC4CECC2
:100330005DE30E941E12A70196010E941413D7FFCD
:10034000CDCF9058CBCFCF92DF92EF92FF92CF9349
:10035000DF93B0917D02A0E08111AB2F80917E02EE
:1003600090E0880F991FAC0146555E4FC090830204
:10037000D0908402E0908502F090860230E020E088
:10038000FA01C591D491E881B90190E080E0EB23B6
:10039000EA130AC02F5F3F4F6C157D058E059F0540
:1003A00078F36FEF7FEFCB01DF91CF91FF90EF906C
:1003B000DF90CF90089590E0FC01EA56FE4F249123
:1003C000FC01E853FE4F3491FC01EC54FE4FE491E4
:1003D000EE23C9F0222339F0233001F1A8F42130B3
:1003E00019F1223029F1F0E0EE0FFF1FE457FE4F24
:1003F000A591B4918FB7F894EC91611126C0309516
:100400003E233C938FBF08952730A9F02830C9F0D0
:10041000243049F7809180008F7D03C08091800057
:100420008F7780938000DFCF84B58F7784BDDBCF5B
:1004300084B58F7DFBCF8091B0008F778093B00023
:10044000D2CF8091B0008F7DF9CF3E2BDACFCF9302
:10045000DF9390E0FC01E853FE4F24918C549E4FB3
:10046000FC0184918823C9F090E0880F991FFC015A
:10047000EE57FE4FA591B491FC01E457FE4FC59194
:10048000D49161110DC09FB7F8948C91209582236F
:100490008C938881282328839FBFDF91CF91089573
:1004A000623051F49FB7F8943C91822F809583235A
:1004B0008C93E8812E2BEFCF8FB7F894EC912E2BF5
:1004C0002C938FBFEACF3FB7F8948091D1019091E0
:1004D000D201A091D301B091D40126B5A89B05C04B
:1004E0002F3F19F00196A11DB11D3FBFBA2FA92FB3
:1004F000982F8827BC01CD01620F711D811D911DB0
:1005000042E0660F771F881F991F4A95D1F708951B
:100510008F929F92AF92BF92CF92DF92EF92FF9213
:100520006B017C010E9463024B015C01C114D10488
:10053000E104F104B9F00E946302681979098A099B
:100540009B09683E73408105910580F321E0C21A42
:10055000D108E108F10888EE880E83E0981EA11CFE
:10056000B11CE4CFFF90EF90DF90CF90BF90AF90A1
:100570009F908F900895CF92DF92EF92FF920F930A
:100580001F93CF93DF93CDB7DEB7C054D1400FB6E2
:10059000F894DEBF0FBECDBF2FB7F8948091D50180
:1005A0009091D601A091D701B091D8012FBF409171
:1005B0007F025091800260918102709182028C01D1
:1005C0009D01041B150B260B370BB901A801403DFB
:1005D00057406105710590F480918702C05CDE4F41
:1005E0000FB6F894DEBF0FBECDBFDF91CF911F9144
:1005F0000F91FF90EF90DF90CF90089580937F024E
:1006000090938002A0938102B093820210927A02AA
:10061000109279021092780210927702109276026C
:1006200062E080917B020E94270261E070E080E03E
:1006300090E00E94880261E080917B020E94270284
:1006400060E080917B020E94DB0180917C028551F9
:10065000823020F58BE291E10197F1F762E0809121
:100660007B020E9427028091880290E082309105EF
:1006700038F0880F991F880F991F05970197F1F798
:10068000F89480E00E94A3016F3F7F4F8F4F9F4FF0
:1006900061F410928702789480E0A0CF64E170E06A
:1006A00080E090E00E948802D9CF81E00E94A301FF
:1006B0006F3F7F4F8F4F9F4F61F38E010F5F1F4F33
:1006C0006E018FEBC81A8EEFD80A780180E00E9485
:1006D000A301F701608371838283938381E00E9489
:1006E000A301F7016483758386839783F8E0EF0E97
:1006F000F11CEC14FD0451F7789430E020E0F8018F
:10070000C080D180E280F380448155816681778109
:10071000FFEFCF16DF06EF06FF0631F04F3F8FEFFA
:1007200058076807780719F410928702B5CFF901C6
:1007300083E0F595E7958A95E1F7EA58FD4F8081CA
:10074000880FC416D506E606F70610F180832F5FE2
:100750003F4F085F1F4F2832310589F640917A02DA
:100760002091760280917702280F3327331F8091E2
:100770007802280F311D80917902820F932F911DED
:1007800099274817190681F681E08093870226CFC2
:100790008160DCCFAF92BF92CF92DF92EF92FF9257
:1007A0000F931F93CF93DF936C017B018B01040F99
:1007B000151FEB015E01AE18BF08C017D10759F035
:1007C0006991D601ED91FC910190F081E02DC60177
:1007D0000995892B79F7C501DF91CF911F910F9171
:1007E000FF90EF90DF90CF90BF90AF900895FC0105
:1007F000538D448D252F30E0842F90E0821B930B86
:10080000541710F0CF96089501970895FC01918D2B
:10081000828D981761F0A28DAE0FBF2FB11D5D962E
:100820008C91928D9F5F9F73928F90E008958FEFD0
:100830009FEF0895FC01918D828D981731F0828D84
:10084000E80FF11D858D90E008958FEF9FEF0895DB
:10085000FC01918D228D892F90E0805C9F4F821B3F
:1008600091098F739927089589ED91E00E942804DA
:1008700021E0892B09F420E0822F089580E090E0A8
:10088000892B29F00E94340481110C9400000895F2
:10089000FC01A48DA80FB92FB11DA35ABF4F2C91F5
:1008A000848D90E001968F739927848FA689B789EC
:1008B0002C93A089B1898C91837080648C93938DE3
:1008C000848D981306C00288F389E02D80818F7D86
:1008D00080830895EF92FF920F931F93CF93DF933E
:1008E000EC0181E0888F9B8D8C8D98131AC0E8896C
:1008F000F989808185FF15C09FB7F894EE89FF893B
:100900006083E889F98980818370806480839FBFD8
:1009100081E090E0DF91CF911F910F91FF90EF90D8
:100920000895F62E0B8D10E00F5F1F4F0F731127E8
:10093000E02E8C8D8E110CC00FB607FCFACFE88923
:10094000F989808185FFF5CFCE010E944804F1CF5F
:10095000EB8DEC0FFD2FF11DE35AFF4FF0829FB797
:10096000F8940B8FEA89FB8980818062CFCFCF9387
:10097000DF93EC01888D8823B9F0AA89BB89E889C7
:10098000F9898C9185FD03C0808186FD0DC00FB66D
:1009900007FCF7CF8C9185FFF2CF808185FFEDCFEB
:1009A000CE010E944804E9CFDF91CF910895DC0188
:1009B00080E0615090F09D919827E92FEF70F0E072
:1009C000EE59FE4F2491E92FE295EF70F0E0EE58DA
:1009D000FE4FE491822F8E27ECCF0895DC012C91FD
:1009E0001196ED91FC91F8948181822B8183928103
:1009F000322F30959323928387E090E00197F1F7AF
:100A000081818323818383E290E00197F1F79081D4
:100A10007894EFECF0E03197F1F7922381E009F45C
:100A200080E00895FC0190810180F281E02D292F62
:100A3000209560FF14C0F894828182238283818193
:100A4000892B8183A3E2B0E01197F1F78281982B83
:100A50009283789487ED90E00197F1F70895F894E8
:100A60008281822382838181892B8183AFEFB0E0F1
:100A70001197F1F78281982B928378948FE090E020
:100A8000EBCFDF92EF92FF920F931F93CF93DF9301
:100A9000EC01D62EE42E08E010E0FF24F39461E090
:100AA0008D2D8F2109F460E0CE010E941205FF0C0C
:100AB00001501109A1F7E11010C0F894E981FA8101
:100AC00091818881809589238183E981FA8192814E
:100AD00088818095892382837894DF91CF911F91BB
:100AE0000F91FF90EF90DF900895EF92FF920F9398
:100AF0001F93CF93DF938C017B0140E065E50E945B
:100B00004105E70188E0E80EF11C699140E0C80169
:100B10000E944105CE15DF05C1F7DF91CF911F91EE
:100B20000F91FF90EF900895FC0190810180F28178
:100B3000E02DF8948181292F209582238183789458
:100B40003DE743E050E0315029F1DA011197F1F728
:100B500080818923C1F3F8948281822382838181F9
:100B6000892B81837894ABE7B7E01197F1F7F8947C
:100B7000818182238183A3E1B1E01197F1F7808124
:100B8000982381E009F080E07894E3E6F6E031977D
:100B9000F1F7089580E008956F927F928F929F926F
:100BA000AF92BF92CF92DF92EF92FF920F931F937B
:100BB000CF93DF938C01EB0180919202909193028D
:100BC0000E949405882309F43FC0B80180919202E5
:100BD000909193020E94750540E06EEB8091920225
:100BE000909193020E9441057E016E0189E0C80E3A
:100BF000D11C8E01A0909202B090930288E0882EC2
:100C0000912C712C66246394C5010E94EE0481111D
:100C10007628660CE1E08E1A9108B1F7F80171921E
:100C20008F01CE16DF0631F78091920290919302E8
:100C30000E949405813041F4F70181917F01811177
:100C400005C0E017F107C1F790E008C068E0CE01E9
:100C50000E94D70491E028852813F6CF892FDF91D1
:100C6000CF911F910F91FF90EF90DF90CF90BF90A9
:100C7000AF909F908F907F906F90089542E050E0EA
:100C80006EE171E089ED91E00C94CA03CF93DF939C
:100C9000FC0101900020E9F73197AF01481B590B87
:100CA000BC0189ED91E00E94CA03EC010E943E065E
:100CB0008C0F9D1FDF91CF910895CF93DF93FC019F
:100CC000448155816081718189ED91E00E94CA0360
:100CD000EC010E943E068C0F9D1FDF91CF9108957D
:100CE000BF92CF92DF92EF92FF920F931F93CF9319
:100CF000DF93EC01B62EC72E8D85811105C0CE0184
:100D00000E94940581110EC01B861D861C8680E002
:100D1000DF91CF911F910F91FF90EF90DF90CF90D7
:100D2000BF90089540E060EFCE010E94410501E0D0
:100D3000E12CD12C11E0CE010E94EE04F82ECE0160
:100D40000E94EE0491E0F91218C0813099F5113437
:100D5000D8F2DB86D11002C081E08D878B81882399
:100D600099F22396EB2DFC2DCF0108962991219322
:100D7000E817F907D9F781E0CBCFEE2DF0E0F812B4
:100D80000FC08B851817A0F4DE01AE0FBF1F13969E
:100D90008C91802379F4F12C193008F41C87D12E22
:100DA000EC0FFD1F8381902F9095892383830AC0C8
:100DB0008113F1CFFE01EE0DF11D8381802B838322
:100DC000FF24F3946F2DCE010E9412051F5F000FC8
:100DD00011F4E39401E087E08E1508F0ACCFB7CFB3
:100DE0004F925F926F927F928F929F92AF92BF923B
:100DF000CF92DF92EF92FF920F93CF93DF93CDB715
:100E0000DEB728970FB6F894DEBF0FBECDBF6B01DB
:100E10007C0149015A0101110EC026E636E646EE74
:100E20005FE30E941E1220E030E040E052E40E94A6
:100E300014136B017C0120E030E048E852E4C70164
:100E4000B6010E9413132AE939E949E95FE30E94D8
:100E50001E122B013C0120E030E044E752E4C701C0
:100E6000B6010E9414139B01AC01C301B2010E94A0
:100E700014132B013C0122E133E840EC5DE3C50192
:100E8000B4010E941E129B01AC01C301B2010E9479
:100E9000141320E030E040E05FE30E941E122B01BB
:100EA0003C0120E030E04EE952E40E948013181625
:100EB0000CF023C1A7019601C701B6010E941E12C2
:100EC0002B013C01A5019401C501B4010E941E1231
:100ED0006D837E838F83988721E133E243E050E482
:100EE000C701B6010E941E1229E134E849E252E42A
:100EF0000E94131369837A838B839C8326E13BE4EE
:100F000042E251E4C501B4010E941E129B01AC01F2
:100F100069817A818B819C810E94141369837A8311
:100F20008B839C8328E436E246E65EEBC701B6017C
:100F30000E941E12A50194010E941E129B01AC0189
:100F400069817A818B819C810E94141369837A83E1
:100F50008B839C8320EE3FE040EE5BEBC301B2014C
:100F60000E941E129B01AC0169817A818B819C8158
:100F70000E94141369837A838B839C8328EF37E85C
:100F800040E65DEB6D817E818F8198850E941E1207
:100F90009B01AC0169817A818B819C810E94141331
:100FA00069837A838B839C832CEA3DE041EA5AE390
:100FB000C301B2010E941E12A50194010E941E12DB
:100FC0009B01AC0169817A818B819C810E94141301
:100FD00069837A838B839C8328EC3FE84FE55AE34F
:100FE000C701B6010E941E122D813E814F81588596
:100FF0000E941E129B01AC0169817A818B819C81C8
:101000000E94141369837A838B839C8321EF3BE8CE
:1010100045E056EBC301B2010E941E122D813E81B4
:101020004F8158850E941E129B01AC0169817A8113
:101030008B819C810E9414132B013C0120E030E045
:1010400040E551E4C501B4010E94B81187FF88C092
:1010500020E030E040EA52E4C701B6010E9480136C
:1010600087FD7EC020E030E040EE52E4C701B601CB
:101070000E94B81118160CF4BDC0A501940160E0DF
:1010800070E080E591E40E94131320E030E040E836
:101090005EE30E941E124B015C0120E030E04EEB4B
:1010A00052E4C701B6010E9413136B017C0120E0DA
:1010B00030E0A9010E94801318160CF048C0A70167
:1010C000960160E070E088E891E40E9413132EE33B
:1010D0003DEE40E75DE30E941E120E948B139B01D0
:1010E000AC01C501B4010E941E129B01AC01C301F9
:1010F000B2010E9413132B013C01011110C020E02A
:1011000030E040E052E4C301B2010E94131326E82C
:1011100038E34EE05FE30E941E122B013C01C30145
:10112000B20128960FB6F894DEBF0FBECDBFDF9197
:10113000CF910F91FF90EF90DF90CF90BF90AF9045
:101140009F908F907F906F905F904F90089520E0D8
:1011500030E048E851E4C701B6010E941413B7CF4C
:1011600020E030E04AEA52E4C501B4010E94801355
:1011700018161CF620E030E040EA52E4C701B60140
:101180000E94801387FDB9CF20E030E04EEA52E4A0
:10119000C701B6010E94B81118160CF4AECF20E0BA
:1011A00030E04AEA52E4C501B4010E9413132DEC69
:1011B0003CEC4CEC5DE30E941E124B015C01A7016C
:1011C000960160E070E08EEA92E40E9413132DEC29
:1011D0003CEC4CE45EE30E941E129B01AC01C50195
:1011E000B4010E941E129B01AC01C301B2010E9416
:1011F000141381CF20E030E04AEA52E4C501B40183
:101200000E94801318160CF4BFCF77CF0F931F9353
:10121000CF93DF93EC0188819981009759F02A815F
:101220003B812617370730F081E0DF91CF911F9186
:101230000F9108958B016F5F7F4F0E9433150097C8
:1012400059F0998388831B830A832C813D81232B4A
:1012500059F7FC011082E8CF80E0E7CFCF93DF930E
:10126000EC0188819981009711F00E94AA141982DB
:1012700018821D821C821B821A82DF91CF910895F1
:10128000EF92FF920F931F93CF93DF93EC01FB013B
:10129000E080F180E114F10411F104811581011560
:1012A0001105A9F08C819D81080F191FB801CE018D
:1012B0000E940609882399F0288139818C819D81BB
:1012C000B701820F931F0E94F9151D830C83CE0175
:1012D000DF91CF911F910F91FF90EF900895CE0174
:1012E0000E942E09F4CFEF92FF920F931F93CF939A
:1012F000DF93EC017B018A01BA010E94060981118A
:101300000BC0CE010E942E09CE01DF91CF911F911B
:101310000F91FF90EF9008951D830C83B701888192
:1013200099810E94F915F0CFEF92FF920F931F93CE
:10133000CF93DF93CDB7DEB7A1970FB6F894DEBF9A
:101340000FBECDBF7C01CB01BA01F7011182108223
:1013500013821282158214828E010F5F1F4F22E0CA
:1013600044E00E942E0F0097C9F0FC01019000207C
:10137000E9F73197AF01481B590BBC01C7010E9427
:101380007309A1960FB6F894DEBF0FBECDBFDF91F3
:10139000CF911F910F91FF90EF900895C7010E9488
:1013A0002E09EFCFEF92FF920F931F93CF93DF930E
:1013B000CDB7DEB762970FB6F894DEBF0FBECDBFD4
:1013C0008C01CB01F80111821082138212821582E6
:1013D00014824AE09E012F5F3F4F7901B9010E94BC
:1013E0004C0FF70101900020E9F73197AF014E193A
:1013F0005F09B701C8010E94730962960FB6F8949D
:10140000DEBF0FBECDBFDF91CF911F910F91FF9037
:10141000EF900895FB01DC0111961C921E92139629
:101420001C921E92129715961C921E921497861764
:10143000970749F0608171816115710521F0448140
:1014400055810C9473090895FC0111821082138256
:10145000128215821482FB0101900020E9F7319776
:10146000AF01461B570B0C947309FC0180819181DD
:10147000009711F00C94AA1408951F920F920FB6C2
:101480000F9211242F933F938F939F93AF93BF930A
:101490008091D5019091D601A091D701B091D8014A
:1014A0003091D00123E0230F2D3758F50196A11D6F
:1014B000B11D2093D0018093D5019093D601A093C4
:1014C000D701B093D8018091D1019091D201A09120
:1014D000D301B091D4010196A11DB11D8093D1011A
:1014E0009093D201A093D301B093D401BF91AF9157
:1014F0009F918F913F912F910F900FBE0F901F9052
:10150000189526E8230F0296A11DB11DD2CF1F9278
:101510000F920FB60F9211242F933F934F935F9327
:101520006F937F938F939F93AF93BF93EF93FF93AB
:1015300089ED91E00E944804FF91EF91BF91AF9136
:101540009F918F917F916F915F914F913F912F91DB
:101550000F900FBE0F901F9018951F920F920FB60D
:101560000F9211242F938F939F93EF93FF93E0910A
:10157000E901F091EA018081E091EF01F091F00141
:1015800082FD1BC090818091F2018F5F8F7320914B
:10159000F301821741F0E091F201F0E0E752FE4FD3
:1015A000958F8093F201FF91EF919F918F912F91F1
:1015B0000F900FBE0F901F9018958081F4CFE9ED2A
:1015C000F1E01382128288EE93E0A0E0B0E0848321
:1015D0009583A683B78380E191E09183808385EC36
:1015E00090E09587848784EC90E09787868780ECED
:1015F00090E0918B808B81EC90E0938B828B82ECDE
:1016000090E0958B848B86EC90E0978B868B118E87
:10161000128E138E148E60E082E00E942702EAECA4
:10162000F1E0E491A0EAB2E0EC93E6EBF1E0E491C2
:10163000F0E0EE0FFF1FE655FE4F85919491129654
:101640009C938E9311971B961C921B971D961C9230
:101650001D971C961C921C971A961C921A97199605
:101660001C92199718961C92189717961C92179708
:1016700016961C92169715961C92159714961C9206
:10168000149713961C921397E9E8F2E0168A158ACC
:101690001182B287A18717821086108289E0838326
:1016A00081E0848385838683A6E7B2E083E0159694
:1016B0008C9315978BE016968C931697EBECF1E0D4
:1016C000E4911796EC931797E7EBF1E0E491189605
:1016D000EC93189740E85EE360E070E01D964D9350
:1016E0005D936D937C9350970895CF93DF93CDB71F
:1016F000DEB7C754D1090FB6F894DEBF0FBECDBF19
:10170000789484B5826084BD84B5816084BD85B5DC
:10171000826085BD85B5816085BD80916E008160E8
:1017200080936E001092810080918100826080938E
:101730008100809181008160809381008091800090
:101740008160809380008091B10084608093B100BB
:101750008091B00081608093B00080917A008460B5
:1017600080937A0080917A00826080937A008091E1
:101770007A00816080937A0080917A0080688093FB
:101780007A001092C100E091E901F091EA0182E053
:101790008083E091E501F091E6011082E091E7019C
:1017A000F091E8018FEC80831092F101E091ED015E
:1017B000F091EE0186E08083E091EB01F091EC0185
:1017C000808180618083E091EB01F091EC01808168
:1017D00088608083E091EB01F091EC01808180686A
:1017E0008083E091EB01F091EC0180818F7D80831B
:1017F00062E080917B020E9427022FB7F8948091CB
:10180000D5019091D601A091D701B091D8012FBFF9
:10181000805D9740A109B10980937F029093800277
:10182000A0938102B093820287E380938802E091C3
:101830009202F09193021386158614861286118601
:1018400010861782168215821482138210929002DB
:101850001092910211E0BE01665F7F4F809192026B
:10186000909193020E947006882309F475C067E086
:10187000CE010A960E94D70499898913ECCF8091F2
:1018800090028F5F809390028A85883231F008F051
:1018900049C0803111F08232F1F6809191028F5F60
:1018A0008093910280918902811128C080919202D7
:1018B000909193020E949405BE01665F7F4F8091D4
:1018C0009202909193020E94750540E064EB809132
:1018D0009202909193020E94410580919202909110
:1018E00093020E94EE04F82E80919202909193024E
:1018F0000E949405F11002C0109389028A858031FC
:10190000E1F0BE016F5F7F4FCE010A960E94CC05C9
:10191000882331F08D818F3391F058F48F31C1F0ED
:1019200080E00EC08B3309F4B8CF823409F093CF36
:10193000B4CF8F3579F08F3799F78CE001C08AE00A
:1019400090918C02981708F086CF80938C0283CFF9
:1019500089E0F6CF8BE0F4CF61E087E00E942702B8
:1019600061E084E00E94270261E085E00E94270296
:101970000E94BB02882351F080917C028B3030F0B2
:101980008D3058F08551823008F4B2C1C12CD12C71
:1019900010ECE12E1FE7F12E1EC06091770270E07F
:1019A00090E080E00E94BF112DEC3CEC4CEC5DE33C
:1019B0000E941E126B017C016091760270E090E043
:1019C00080E00E94BF119B01AC01C701B6010E94DB
:1019D00014136B017C010E94BB02812C912CB0EC92
:1019E000AB2EBFE7BB2E882329F080E00E941901AF
:1019F0004B015C010E94BB02809192029091930284
:101A00000E94940540E06CEC8091920290919302C8
:101A10000E9441054091890264E480919202909174
:101A200093020E94410580918D02882391F1E091FB
:101A30008C0280918E02882309F46CC18091890206
:101A4000811168C18FB7F8944090D5015090D601AC
:101A50006090D7017090D8018FBF809192029091D1
:101A600093020E94EE048130A1F02FB7F894809188
:101A7000D5019091D601A091D701B091D8012FBF87
:101A800084199509A609B7098E3E9240A105B105B2
:101A900020F3E0919202F09193021386158614864A
:101AA000128611861086178216821582148213827E
:101AB000BE01665F7F4F80919202909193020E94D7
:101AC000700681114FC1412C512CFEEF6F2EF2ECAC
:101AD0007F2EB701A601CE018E5B9F4F0E94940915
:101AE000B501A401CE01CC960E949409B301A201D4
:101AF000CE01C6960E94940961E271E0CE01019682
:101B00000E94240ABE016E5B7F4FCE0101960E94A7
:101B10004009BC01CE01C0960E940A0ACE0101967E
:101B20000E94350A63E271E0CE0101960E94240A08
:101B3000BE01645C7F4FCE0101960E944009BC014A
:101B4000CE018A960E940A0ACE0101960E94350AA9
:101B500065E271E0CE0101960E94240ABE016A5C32
:101B60007F4FCE0101960E944009BC01CE018496B0
:101B70000E940A0ACE0101960E94350A65E270E0D1
:101B8000CE014E960E94D20967E271E0CE01019625
:101B90000E94240ABE01625E7F4FCE0101960E9420
:101BA0004009BC01CE0148960E940A0ACE01019666
:101BB0000E94350ACE0148960E945D0664E170E0FD
:101BC000CE0142960E94D20969E271E0CE010196EF
:101BD0000E94240ABE016E5E7F4FCE0101960E94D4
:101BE0004009BC01CE010A960E940A0ACE01019664
:101BF0000E94350ACE010A960E945D06CE01C0966B
:101C00000E945D06CE018A960E945D06CE018496F2
:101C10000E945D068BE291E00E94460660E177E259
:101C200080E090E00E94880220E030E044E152E44D
:101C3000C301B2010E94B81118160CF4E6C08EE67A
:101C400091E00E94460661E084E00E94DB0189ED9C
:101C500091E00E9428041816190674F489ED91E0A9
:101C60000E9406048334910509F4E2C00CF0D3C04D
:101C70008134910509F4E5C06AEF70E080E090E0FE
:101C80000E948802CE010A960E94350ACE01429631
:101C90000E94350ACE0148960E94350ACE014E9622
:101CA0000E94350ACE0184960E94350ACE018A969A
:101CB0000E94350ACE01C0960E94350ACE01C69612
:101CC0000E94350ACE01CC960E94350ACE018E5B69
:101CD0009F4F0E94350A80E090E0892B09F448CE9E
:101CE0000E943404882309F443CE0E94000040CEB1
:101CF000609176027091770276276727762790E0C9
:101D000080E00E94BD112DEC3CEC4CEC5DE30E94A8
:101D10001E125FCEE9508EEE92E0E33038F4F0E030
:101D2000EE0FFF1FEA5FFE4F808191812C01990F1A
:101D30006608770880918A02882329F060E0809104
:101D40008B020E94DB01C301B2010E9488028091D4
:101D50008A02882309F49DCE61E080918B020E9463
:101D6000DB0197CE67E0CE010A960E94D7049989DD
:101D70008913A9CEBE016F5F7F4FCE010A960E94E4
:101D8000CC05882309F49FCE6A8170E0762F662700
:101D9000770F770F770F298148E0249F9001112456
:101DA000262B372B8A858031E1F468856623C9F0BC
:101DB00070E08F81AB01481B5109CA019695982F9D
:101DC0008827979587950E94E013CB018097B901EA
:101DD00053E0660F771F5A95E1F760789C01260F54
:101DE000371F213854EE35070CF46DCEB901330F8F
:101DF000880B990B0E94BF1120E030E040E05CE3CB
:101E00000E941E122B013C0164CE60E085E00E941E
:101E1000DB0160E019CF88349105C9F08C3491055D
:101E200009F02ACF87EC91E00E94460660E014C0DA
:101E300089E891E00E94460661E085E00E94DB01AE
:101E40001BCF84EA91E00E94460660E0F6CF80EC6A
:101E500091E00E94460661E087E0F0CFEF920F9399
:101E60001F93CF93DF93E80134E047FD34E1042E64
:101E7000000C550B57FF03C0519541955109E32EB6
:101E8000022F242FAE010E94710FCE01DF91CF915E
:101E90001F910F91EF900895BB274A3031F4992399
:101EA00022F4BDE2909581959F4F0C94580FBB276B
:101EB000FB015527AA27880F991FAA1FA41710F006
:101EC000A41B83955051B9F7A05DAA3308F0A95D12
:101ED000A193009779F7B111B1931192CB010C94B2
:101EE000A811A9E0B0E0E7E7FFE00C94E2126A0174
:101EF000F22EB02E102FFBE3AF2EA01608F41BE33A
:101F00001F5F012F27E0AE014F5F5F4F0E94D0108F
:101F1000BC018981982F9970913009F43FC09BE2F0
:101F2000E1FC04C09E2D9170E0FC3AC05E2D507122
:101F3000E82FE87083FF46C084E0911101C083E080
:101F4000EF2DE81B8F1508F0E0E0D6018E2F20E280
:101F5000552351F1992329F0D6019C93C60101968E
:101F60006C0196012D5F3F4FE2FE24C08EE4D60146
:101F70008C9391E411969C93119712968C93D901AE
:101F80008E2F90E281111BC0E20FF32FF11D108202
:101F90008EEF9FEF2996ECE00C94FE129DE2C6CFE7
:101FA00090E2C4CF2D9381508111FCCFCE0ED11C75
:101FB000E0E0D0CF8EE6D6018C9391E6DBCF9D9307
:101FC0008150E0CF482F447082FF3DC084E09111E2
:101FD00001C083E08F1510F4EF2DE81BD6018E2F82
:101FE00020E2552309F1992329F0D6019C93C601DB
:101FF00001966C0196012D5F3F4FE2FE1BC089E404
:10200000D6018C938EE411968C93119786E41296E8
:102010008C93D9018E2F90E2882309F4B5CF9D933C
:102020008150FACF2D9381508111FCCFCE0ED11C5F
:10203000E0E0D9CF89E6D6018C938EE611968C9399
:10204000119786E6E4CF9B0177FF02C030E020E0E5
:10205000A1E0B0E0911102C0B0E0A0E0F90131963A
:10206000AE0FBF1F8B2C912CBB2009F461C0540113
:10207000EFEFAE1ABE0AAA0DBB1DFA161B0619F029
:1020800014F04F2D4A1B511188C0E3FC59C0760152
:10209000A42FB0E2A1114FC0C40ED11C992309F4A2
:1020A0005BC040E0D6011196F60190836D01552387
:1020B00009F448C0012F060F9A81582F507184FFF0
:1020C00003C0913309F4015010160CF047C00930D9
:1020D00008F008E0EEE2FE2E5B01A01AB1088501CF
:1020E0009194819491082F3F320729F4D601FC92F4
:1020F000F60131966F016217730794F10217130707
:102100007CF5DB01A21BB30BAA24A394B12CAC0E6B
:10211000BD1EAA0DBB1D11968C9121503109D6010F
:10212000119628153905F4F0F60180836D01DBCF97
:10213000B12CA12CA0CFF701B1937F01A150AACF60
:102140009111B0CFD601942F50E302C05D9391500E
:102150009111FCCFC40ED11C40E0ACCF01E0BACF4E
:1021600080E3DBCF6217730731F4963388F495333D
:1021700011F4552369F0F6018083FD01842F90E26C
:10218000811108C0A40FB11D1C9290E080E002CF25
:1021900081E3F1CF91938150F3CF911183CF8ACF17
:1021A000283008F027E03327DA01990F311D87FD29
:1021B000916000966105710539F432602E5F3D93A0
:1021C00030E32A95E1F708959F3F30F0803871059C
:1021D000610509F03C5F3C5F3D93913008F08068F9
:1021E000911DDF93CF931F930F93FF92EF92192FBF
:1021F000987F9695E92F96959695E90FFF27EE53D0
:10220000FF4F99273327EE24FF24A701E70105900C
:102210000894079428F4360FE71EF81E491F511D35
:10222000660F771F881F991F0694A1F705900794E2
:1022300028F4E70EF81E491F561FC11D770F881F8F
:10224000991F661F0694A1F70590079428F4F80ECD
:10225000491F561FC71FD11D880F991F661F771F63
:102260000694A1F70590079420F4490F561FC71F45
:10227000D81F990F661F771F881F0694A9F78491AE
:102280001095177041F0D695C79557954795F794D7
:10229000E7941A95C1F7E8E6F0E068941590159177
:1022A00035916591959105907FE27395E118F10A5A
:1022B000430B560BC90BD009C0F7E10CF11E431FAD
:1022C000561FC91FD01D7EF4703311F48A95E6CFD6
:1022D000E894015030F0080F0AF40027021708F4C0
:1022E000202F2395022F7A3328F079E37D932A95C6
:1022F000E9F710C07D932A9589F60694979567951E
:10230000379517951794E118F10A430B560BC90B33
:10231000D00998F023957E9173957A3308F070E395
:102320007C932013B8F77E9170617D9330F0839594
:1023300071E37D9370E32A95E1F71124EF90FF900C
:102340000F911F91CF91DF91992787FD9095089567
:10235000DC01FC01672F71917723E1F7329704C00C
:102360007C916D9370836291AE17BF07C8F3089597
:102370000E94FA1108F481E00895E89409C097FBDF
:102380003EF490958095709561957F4F8F4F9F4F4C
:102390009923A9F0F92F96E9BB279395F695879590
:1023A00077956795B795F111F8CFFAF4BB0F11F453
:1023B00060FF1BC06F5F7F4F8F4F9F4F16C08823FA
:1023C00011F096E911C0772321F09EE8872F762F30
:1023D00005C0662371F096E8862F70E060E02AF071
:1023E0009A95660F771F881FDAF7880F969587955D
:1023F00097F90895990F0008550FAA0BE0E8FEEF32
:1024000016161706E807F907C0F012161306E407B8
:10241000F50798F0621B730B840B950B39F40A26B1
:1024200061F0232B242B252B21F408950A2609F48F
:10243000A140A6958FEF811D811D08950E94311244
:102440000C94A2120E94941238F00E949B1220F069
:10245000952311F00C948B120C94911211240C946E
:10246000D6120E94B31270F3959FC1F3950F50E0FE
:10247000551F629FF001729FBB27F00DB11D639F36
:10248000AA27F00DB11DAA1F649F6627B00DA11DDC
:10249000661F829F2227B00DA11D621F739FB00D82
:1024A000A11D621F839FA00D611D221F749F3327F2
:1024B000A00D611D231F849F600D211D822F762F8B
:1024C0006A2F11249F5750409AF0F1F088234AF068
:1024D000EE0FFF1FBB1F661F771F881F91505040D4
:1024E000A9F79E3F510580F00C948B120C94D612E4
:1024F0005F3FE4F3983ED4F3869577956795B7955B
:10250000F795E7959F5FC1F7FE2B880F911D969574
:10251000879597F9089597F99F6780E870E060E0E4
:1025200008959FEF80EC089500240A94161617066C
:1025300018060906089500240A94121613061406B4
:1025400005060895092E0394000C11F4882352F017
:10255000BB0F40F4BF2B11F460FF04C06F5F7F4FCF
:102560008F4F9F4F089557FD9058440F551F59F0B6
:102570005F3F71F04795880F97FB991F61F09F3F70
:1025800079F087950895121613061406551FF2CF99
:102590004695F1DF08C0161617061806991FF1CFE9
:1025A00086957105610508940895E894BB27662710
:1025B0007727CB0197F908952F923F924F925F9220
:1025C0006F927F928F929F92AF92BF92CF92DF9243
:1025D000EF92FF920F931F93CF93DF93CDB7DEB7A8
:1025E000CA1BDB0B0FB6F894DEBF0FBECDBF09943C
:1025F0002A88398848885F846E847D848C849B8493
:10260000AA84B984C884DF80EE80FD800C811B81A0
:10261000AA81B981CE0FD11D0FB6F894DEBF0FBECF
:10262000CDBFED0108955058BB27AA270E942B1358
:102630000C94A2120E94941238F00E949B1220F077
:1026400039F49F3F19F426F40C9491120EF4E0959E
:10265000E7FB0C948B12E92F0E94B31258F3BA17C0
:10266000620773078407950720F079F4A6F50C94A8
:10267000D5120EF4E0950B2EBA2FA02D0B01B90147
:1026800090010C01CA01A0011124FF27591B99F0E8
:10269000593F50F4503E68F11A16F040A22F232FF4
:1026A000342F4427585FF3CF469537952795A79544
:1026B000F0405395C9F77EF41F16BA0B620B730BEB
:1026C000840BBAF09150A1F0FF0FBB1F661F771F5C
:1026D000881FC2F70EC0BA0F621F731F841F48F411
:1026E000879577956795B795F7959E3F08F0B0CF9A
:1026F0009395880F08F09927EE0F97958795089581
:102700000E94FA1108F48FEF089519F416F40C944E
:1027100091120C94CB130E94BB12B8F39923C9F306
:10272000B6F39F57550B87FF0E94D9130024A0E6EC
:1027300040EA900180585695979528F4805C660F82
:10274000771F881F20F026173707480730F4621BD1
:10275000730B840B202931294A2BA69517940794D3
:10276000202531254A2758F7660F771F881F20F04C
:1027700026173707480730F4620B730B840B200DC4
:10278000311D411DA09581F7B901842F9158880F03
:102790009695879508959F3F31F0915020F4879545
:1027A00077956795B795880F911D9695879597F9B9
:1027B000089591505040660F771F881FD2F70895F3
:1027C00097FB072E16F4009407D077FD09D00E94DE
:1027D000F41307FC05D03EF4909581959F4F089522
:1027E000709561957F4F0895AA1BBB1B51E107C0EF
:1027F000AA1FBB1FA617B70710F0A61BB70B881F91
:10280000991F5A95A9F780959095BC01CD0108951F
:10281000EE0FFF1F0590F491E02D09940F931F9385
:10282000CF93DF938230910510F482E090E0E09145
:10283000B002F091B10230E020E0B0E0A0E03097CB
:1028400099F42115310509F44AC0281B390B2430AD
:102850003105D8F58A819B816115710589F1FB01EC
:1028600093838283FE0111C04081518102811381D3
:1028700048175907E0F04817590799F4109761F085
:1028800012960C93129713961C933296CF01DF91F8
:10289000CF911F910F9108950093B0021093B10250
:1028A000F4CF2115310551F04217530738F0A90133
:1028B000DB019A01BD01DF01F801C1CFEF01F9CFC2
:1028C0009093B1028093B002CDCFFE01E20FF31FCF
:1028D000819391932250310939832883D7CF209156
:1028E000AE023091AF02232B41F4209102013091CE
:1028F00003013093AF022093AE022091000130918A
:1029000001012115310541F42DB73EB74091040175
:1029100050910501241B350BE091AE02F091AF02FE
:10292000E217F307A0F42E1B3F0B2817390778F0A6
:10293000AC014E5F5F4F2417350748F04E0F5F1F05
:102940005093AF024093AE02819391939FCFF0E0FA
:10295000E0E09CCFCF93DF930097E9F0FC01329742
:1029600013821282A091B002B091B102ED0130E069
:1029700020E01097A1F420813181820F931F2091D4
:10298000AE023091AF022817390709F061C0F09309
:10299000AF02E093AE02DF91CF910895EA01CE1726
:1029A000DF07E8F54A815B819E0141155105B1F7CA
:1029B000E901FB83EA8349915991C40FD51FEC17B4
:1029C000FD0761F4808191810296840F951FE901D2
:1029D00099838883828193819B838A83F0E0E0E0FE
:1029E00012968D919C9113970097B9F52D913C917A
:1029F0001197CD010296820F931F2091AE02309164
:102A0000AF022817390739F6309751F51092B10205
:102A10001092B002B093AF02A093AE02BCCFD383AA
:102A2000C28340815181840F951FC817D90761F473
:102A30004E5F5F4F88819981480F591F51834083B2
:102A40008A819B81938382832115310509F0B0CF60
:102A5000F093B102E093B0029ECFFD01DC01C0CF44
:102A600013821282D7CFB0E0A0E0E9E3F5E10C9445
:102A7000DE128C01009751F4CB010E940E148C01E0
:102A8000C801CDB7DEB7E0E10C94FA12FC01E60F05
:102A9000F71F9C0122503109E217F30708F49DC08B
:102AA000D901CD91DC911197C617D70798F0C530A1
:102AB000D10530F3CE0104978617970708F3C61B9C
:102AC000D70B2297C193D1936D937C93CF010E9432
:102AD000AA14D6CF5B01AC1ABD0A4C018C0E9D1E08
:102AE000A091B002B091B102512C412CF12CE12CFB
:102AF000109731F58091AE029091AF02881599053B
:102B000009F05CC04616570608F058C080910001D5
:102B100090910101009741F48DB79EB74091040157
:102B200050910501841B950BE817F90708F055C073
:102B3000F093AF02E093AE02F90171836083A0CFFE
:102B40008D919C91119712966C90129713967C9090
:102B50001397A815B90559F56C0142E0C40ED11CB4
:102B6000CA14DB0420F1AC014A195B09DA011296A0
:102B7000159780F06282738251834083D9016D93EF
:102B80007C93E114F10471F0D7011396FC93EE935A
:102B9000129776CF22968C0F9D1FF9019183808327
:102BA000F301EFCFF093B102E093B00269CF481682
:102BB000590608F42C017D01D3019ACFCB010E9464
:102BC0000E147C01009749F0AE01B8010E94F01587
:102BD000C8010E94AA14870153CF10E000E050CF33
:102BE000FB01DC0102C001900D9241505040D8F72A
:102BF0000895FB01DC0101900D920020E1F708959A
:042C0000F894FFCF76
:102C04000000B20280005E00BC00770100000000FA
:102C14006A04CA03F703B704280406041A040D0A55
:102C24000041004200440055004D00546865206195
:102C340075746F6D617465642066616E20636F6E78
:102C440074726F6C206261736564206F6E207465AA
:102C54006D70657261747572652068617320626558
:102C6400656E206163746976617465642E005468CE
:102C74006520434F4C442066616E2069732074754F
:102C8400726E6564206F66660054686520557070C6
:102C940065722066616E206973207475726E656456
:102CA400206F6E00546865205570706572206661EF
:102CB4006E206973207475726E6564206F66660099
:102CC400476173204F6E00476173204F66660000B2
:00000001FF
